{"abi":[{"type":"constructor","inputs":[{"name":"_axiomV2QueryAddress","type":"address","internalType":"address"},{"name":"_callbackSourceChainId","type":"uint64","internalType":"uint64"},{"name":"_axiomCallbackQuerySchema","type":"bytes32","internalType":"bytes32"}],"stateMutability":"nonpayable"},{"type":"function","name":"MY_ADDRESS","inputs":[],"outputs":[{"name":"","type":"address","internalType":"address"}],"stateMutability":"view"},{"type":"function","name":"TRANSFER_SCHEMA","inputs":[],"outputs":[{"name":"","type":"bytes32","internalType":"bytes32"}],"stateMutability":"view"},{"type":"function","name":"UNI_TRANSFER_ADDRESS","inputs":[],"outputs":[{"name":"","type":"address","internalType":"address"}],"stateMutability":"view"},{"type":"function","name":"axiomCallbackQuerySchema","inputs":[],"outputs":[{"name":"","type":"bytes32","internalType":"bytes32"}],"stateMutability":"view"},{"type":"function","name":"axiomV2Callback","inputs":[{"name":"sourceChainId","type":"uint64","internalType":"uint64"},{"name":"caller","type":"address","internalType":"address"},{"name":"querySchema","type":"bytes32","internalType":"bytes32"},{"name":"queryId","type":"uint256","internalType":"uint256"},{"name":"axiomResults","type":"bytes32[]","internalType":"bytes32[]"},{"name":"extraData","type":"bytes","internalType":"bytes"}],"outputs":[],"stateMutability":"nonpayable"},{"type":"function","name":"axiomV2OffchainCallback","inputs":[{"name":"sourceChainId","type":"uint64","internalType":"uint64"},{"name":"caller","type":"address","internalType":"address"},{"name":"querySchema","type":"bytes32","internalType":"bytes32"},{"name":"queryId","type":"uint256","internalType":"uint256"},{"name":"axiomResults","type":"bytes32[]","internalType":"bytes32[]"},{"name":"extraData","type":"bytes","internalType":"bytes"}],"outputs":[],"stateMutability":"nonpayable"},{"type":"function","name":"axiomV2QueryAddress","inputs":[],"outputs":[{"name":"","type":"address","internalType":"address"}],"stateMutability":"view"},{"type":"function","name":"callbackSourceChainId","inputs":[],"outputs":[{"name":"","type":"uint64","internalType":"uint64"}],"stateMutability":"view"},{"type":"function","name":"hasClaimed","inputs":[{"name":"","type":"uint256","internalType":"uint256"}],"outputs":[{"name":"","type":"bool","internalType":"bool"}],"stateMutability":"view"},{"type":"function","name":"owner","inputs":[],"outputs":[{"name":"","type":"address","internalType":"address"}],"stateMutability":"view"},{"type":"function","name":"querySubmitted","inputs":[{"name":"","type":"address","internalType":"address"}],"outputs":[{"name":"","type":"bool","internalType":"bool"}],"stateMutability":"view"},{"type":"function","name":"renounceOwnership","inputs":[],"outputs":[],"stateMutability":"nonpayable"},{"type":"function","name":"token","inputs":[],"outputs":[{"name":"","type":"address","internalType":"contract IERC20"}],"stateMutability":"view"},{"type":"function","name":"transferOwnership","inputs":[{"name":"newOwner","type":"address","internalType":"address"}],"outputs":[],"stateMutability":"nonpayable"},{"type":"function","name":"updateCallbackQuerySchema","inputs":[{"name":"_axiomCallbackQuerySchema","type":"bytes32","internalType":"bytes32"}],"outputs":[],"stateMutability":"nonpayable"},{"type":"function","name":"updateRefundToken","inputs":[{"name":"_token","type":"address","internalType":"address"}],"outputs":[],"stateMutability":"nonpayable"},{"type":"event","name":"AxiomCallbackQuerySchemaUpdated","inputs":[{"name":"axiomCallbackQuerySchema","type":"bytes32","indexed":false,"internalType":"bytes32"}],"anonymous":false},{"type":"event","name":"AxiomV2Call","inputs":[{"name":"sourceChainId","type":"uint64","indexed":true,"internalType":"uint64"},{"name":"caller","type":"address","indexed":false,"internalType":"address"},{"name":"querySchema","type":"bytes32","indexed":true,"internalType":"bytes32"},{"name":"queryId","type":"uint256","indexed":true,"internalType":"uint256"}],"anonymous":false},{"type":"event","name":"AxiomV2OffchainCall","inputs":[{"name":"sourceChainId","type":"uint64","indexed":true,"internalType":"uint64"},{"name":"caller","type":"address","indexed":false,"internalType":"address"},{"name":"querySchema","type":"bytes32","indexed":true,"internalType":"bytes32"},{"name":"queryId","type":"uint256","indexed":true,"internalType":"uint256"}],"anonymous":false},{"type":"event","name":"ClaimRefund","inputs":[{"name":"user","type":"address","indexed":true,"internalType":"address"},{"name":"queryId","type":"uint256","indexed":true,"internalType":"uint256"},{"name":"transferValue","type":"uint256","indexed":false,"internalType":"uint256"},{"name":"axiomResults","type":"bytes32[]","indexed":false,"internalType":"bytes32[]"}],"anonymous":false},{"type":"event","name":"ClaimRefundError","inputs":[{"name":"user","type":"address","indexed":true,"internalType":"address"},{"name":"error","type":"string","indexed":false,"internalType":"string"}],"anonymous":false},{"type":"event","name":"OwnershipTransferred","inputs":[{"name":"previousOwner","type":"address","indexed":true,"internalType":"address"},{"name":"newOwner","type":"address","indexed":true,"internalType":"address"}],"anonymous":false},{"type":"event","name":"RefundTokenAddressUpdated","inputs":[{"name":"token","type":"address","indexed":false,"internalType":"address"}],"anonymous":false},{"type":"error","name":"AxiomV2QueryAddressIsZero","inputs":[]},{"type":"error","name":"CallerMustBeAxiomV2Query","inputs":[]}],"bytecode":{"object":"0x60a0604052600480546001600160a01b031916731f9840a85d5af5bf1d1762f925bdaddc4201f98417905534801561003657600080fd5b50604051610ee3380380610ee383398101604081905261005591610116565b826001600160a01b03811661007d5760405163d86f565560e01b815260040160405180910390fd5b6001600160a01b0316608052610092336100c6565b600080546001600160401b03909316600160a01b02600160a01b600160e01b03199093169290921790915560015550610171565b600080546001600160a01b038381166001600160a01b0319831681178455604051919092169283917f8be0079c531659141344cd1fd0a4f28419497f9722a3daafe3b4186f6b6457e09190a35050565b60008060006060848603121561012b57600080fd5b83516001600160a01b038116811461014257600080fd5b60208501519093506001600160401b038116811461015f57600080fd5b80925050604084015190509250925092565b608051610d4961019a6000396000818161018d0152818161033701526103f60152610d496000f3fe608060405234801561001057600080fd5b50600436106101005760003560e01c8063a3bea24711610097578063dc5cd53c11610066578063dc5cd53c14610288578063f2fde38b1461029b578063fc0c546a146102ae578063fedf83bb146102c157600080fd5b8063a3bea2471461020e578063ab72fc0914610229578063cd1cd7251461025c578063ce5165071461026557600080fd5b80633a756cec116100d35780633a756cec146101c7578063715018a6146101e25780638193399c146101ea5780638da5cb5b146101fd57600080fd5b8063034606e0146101055780630a50ec5c1461011a57806315344188146101535780632a75d3be14610188575b600080fd5b610118610113366004610b1b565b6102d4565b005b60005461013590600160a01b900467ffffffffffffffff1681565b60405167ffffffffffffffff90911681526020015b60405180910390f35b61017a7fddf252ad1be2c89b69c2b068fc378daa952ba7f163c4a11628f55a4df523b3ef81565b60405190815260200161014a565b6101af7f000000000000000000000000000000000000000000000000000000000000000081565b6040516001600160a01b03909116815260200161014a565b6101af73e534b1d79cb4c8e11beb93f00184a12bd85a63fd81565b610118610318565b6101186101f8366004610b99565b61032c565b6000546001600160a01b03166101af565b6101af731f9840a85d5af5bf1d1762f925bdaddc4201f98481565b61024c610237366004610c78565b60026020526000908152604090205460ff1681565b604051901515815260200161014a565b61017a60015481565b61024c610273366004610b1b565b60036020526000908152604090205460ff1681565b610118610296366004610b99565b6103eb565b6101186102a9366004610c78565b610490565b6004546101af906001600160a01b031681565b6101186102cf366004610c78565b61050e565b6102dc610564565b60018190556040518181527f215a17e0015e11cebc3087027513f0b70572c3b3341a76ef38fbcbbb8193c6ae906020015b60405180910390a150565b610320610564565b61032a60006105be565b565b336001600160a01b037f00000000000000000000000000000000000000000000000000000000000000001614610375576040516312e71c9f60e11b815260040160405180910390fd5b6040516001600160a01b03881681528590879067ffffffffffffffff8b16907fd6d9923f6afa6ae6afc97c99da22b8ccadc9beafe897857b2434da0a402da98c9060200160405180910390a46103d1600189898989878761060e565b6103e188888888888888886106e3565b5050505050505050565b336001600160a01b037f00000000000000000000000000000000000000000000000000000000000000001614610434576040516312e71c9f60e11b815260040160405180910390fd5b6040516001600160a01b03881681528590879067ffffffffffffffff8b16907fc6d3309bf887e48755c9a455e332b73641b6bf2fd018e3b608bf21676c4c0af59060200160405180910390a46103d1600089898989878761060e565b610498610564565b6001600160a01b0381166105025760405162461bcd60e51b815260206004820152602660248201527f4f776e61626c653a206e6577206f776e657220697320746865207a65726f206160448201526564647265737360d01b60648201526084015b60405180910390fd5b61050b816105be565b50565b610516610564565b600480546001600160a01b0319166001600160a01b0383169081179091556040519081527feaf416afecd22a0564af9ccd6d2b8b8c8cc18c4de2f7a4c512dc805ee87ad0ec9060200161030d565b6000546001600160a01b0316331461032a5760405162461bcd60e51b815260206004820181905260248201527f4f776e61626c653a2063616c6c6572206973206e6f7420746865206f776e657260448201526064016104f9565b600080546001600160a01b038381166001600160a01b0319831681178455604051919092169283917f8be0079c531659141344cd1fd0a4f28419497f9722a3daafe3b4186f6b6457e09190a35050565b60005467ffffffffffffffff878116600160a01b909204161461067f5760405162461bcd60e51b815260206004820152602360248201527f4173736574526566756e643a20736f75726365436861696e4964206d69736d616044820152620e8c6d60eb1b60648201526084016104f9565b60015484146106da5760405162461bcd60e51b815260206004820152602160248201527f4173736574526566756e643a207175657279536368656d61206d69736d6174636044820152600d60fb1b60648201526084016104f9565b50505050505050565b6000848460048181106106f8576106f8610c9a565b9050602002013560001c905060008585600581811061071957610719610c9a565b608085901b602091820293909301359283176000908152600390915260409020549192505060ff16156107a95760405162461bcd60e51b815260206004820152603260248201527f417373657420526566756e643a20557365722068617320616c726561647920636044820152711b185a5b5959081d1a1a5cc81c99599d5b9960721b60648201526084016104f9565b6000868660008181106107be576107be610c9a565b9050602002013560001c90506000878760018181106107df576107df610c9a565b9050602002013560001c905060008888600281811061080057610800610c9a565b9050602002013560001c905060008989600381811061082157610821610c9a565b9050602002013560001c90508c6001600160a01b0316846001600160a01b0316146108a35760405162461bcd60e51b815260206004820152602c60248201527f417373657420526566756e643a20496e76616c6964207573657220616464726560448201526b1cdcc8199bdc88195d995b9d60a21b60648201526084016104f9565b6001600160a01b03831673e534b1d79cb4c8e11beb93f00184a12bd85a63fd146109285760405162461bcd60e51b815260206004820152603060248201527f417373657420526566756e643a20496e76616c6964207265636569766572206160448201526f19191c995cdcc8199bdc88195d995b9d60821b60648201526084016104f9565b6001600160a01b038116731f9840a85d5af5bf1d1762f925bdaddc4201f984146109d45760405162461bcd60e51b815260206004820152605160248201527f417373657420526566756e643a2041646472657373207468617420656d69747460448201527f6564207472616e73666572206576656e74206973206e6f742074686520554e49606482015270205472616e73666572206164647265737360781b608482015260a4016104f9565b608086901b851760009081526003602052604090819020805460ff191660011790556004805491516323b872dd60e01b815273e534b1d79cb4c8e11beb93f00184a12bd85a63fd918101919091526001600160a01b038f8116602483015260448201859052909116906323b872dd906064016020604051808303816000875af1158015610a65573d6000803e3d6000fd5b505050506040513d601f19601f82011682018060405250810190610a899190610cb0565b610ac55760405162461bcd60e51b815260206004820152600d60248201526c1499599d5b990819985a5b1959609a1b60448201526064016104f9565b8a8d6001600160a01b03167fab6b62b64f3ea2d217d0908b434107c9e2a03a726dba2f3460c2b46d4dfaa041848d8d604051610b0393929190610cd2565b60405180910390a35050505050505050505050505050565b600060208284031215610b2d57600080fd5b5035919050565b80356001600160a01b0381168114610b4b57600080fd5b919050565b60008083601f840112610b6257600080fd5b50813567ffffffffffffffff811115610b7a57600080fd5b602083019150836020828501011115610b9257600080fd5b9250929050565b60008060008060008060008060c0898b031215610bb557600080fd5b883567ffffffffffffffff8082168214610bce57600080fd5b819950610bdd60208c01610b34565b985060408b0135975060608b0135965060808b0135915080821115610c0157600080fd5b818b0191508b601f830112610c1557600080fd5b813581811115610c2457600080fd5b8c60208260051b8501011115610c3957600080fd5b6020830196508095505060a08b0135915080821115610c5757600080fd5b50610c648b828c01610b50565b999c989b5096995094979396929594505050565b600060208284031215610c8a57600080fd5b610c9382610b34565b9392505050565b634e487b7160e01b600052603260045260246000fd5b600060208284031215610cc257600080fd5b81518015158114610c9357600080fd5b838152604060208201819052810182905260006001600160fb1b03831115610cf957600080fd5b8260051b808560608501379190910160600194935050505056fea26469706673582212202fc5494dbc1c11d2ca2a1c3031f4690cb94e01b434ef0e2ce234aa313947557d64736f6c63430008130033","linkReferences":{}},"methodIdentifiers":{"MY_ADDRESS()":"3a756cec","TRANSFER_SCHEMA()":"15344188","UNI_TRANSFER_ADDRESS()":"a3bea247","axiomCallbackQuerySchema()":"cd1cd725","axiomV2Callback(uint64,address,bytes32,uint256,bytes32[],bytes)":"dc5cd53c","axiomV2OffchainCallback(uint64,address,bytes32,uint256,bytes32[],bytes)":"8193399c","axiomV2QueryAddress()":"2a75d3be","callbackSourceChainId()":"0a50ec5c","hasClaimed(uint256)":"ce516507","owner()":"8da5cb5b","querySubmitted(address)":"ab72fc09","renounceOwnership()":"715018a6","token()":"fc0c546a","transferOwnership(address)":"f2fde38b","updateCallbackQuerySchema(bytes32)":"034606e0","updateRefundToken(address)":"fedf83bb"},"id":44}