{"abi":[{"type":"constructor","inputs":[{"name":"_axiomV2QueryAddress","type":"address","internalType":"address"},{"name":"_callbackSourceChainId","type":"uint64","internalType":"uint64"},{"name":"_axiomCallbackQuerySchema","type":"bytes32","internalType":"bytes32"}],"stateMutability":"nonpayable"},{"type":"function","name":"RECEIVER_ADDRESS","inputs":[],"outputs":[{"name":"","type":"address","internalType":"address"}],"stateMutability":"view"},{"type":"function","name":"TRANSFER_SCHEMA","inputs":[],"outputs":[{"name":"","type":"bytes32","internalType":"bytes32"}],"stateMutability":"view"},{"type":"function","name":"UNI_TRANSFER_ADDRESS","inputs":[],"outputs":[{"name":"","type":"address","internalType":"address"}],"stateMutability":"view"},{"type":"function","name":"axiomCallbackQuerySchema","inputs":[],"outputs":[{"name":"","type":"bytes32","internalType":"bytes32"}],"stateMutability":"view"},{"type":"function","name":"axiomV2Callback","inputs":[{"name":"sourceChainId","type":"uint64","internalType":"uint64"},{"name":"caller","type":"address","internalType":"address"},{"name":"querySchema","type":"bytes32","internalType":"bytes32"},{"name":"queryId","type":"uint256","internalType":"uint256"},{"name":"axiomResults","type":"bytes32[]","internalType":"bytes32[]"},{"name":"extraData","type":"bytes","internalType":"bytes"}],"outputs":[],"stateMutability":"nonpayable"},{"type":"function","name":"axiomV2OffchainCallback","inputs":[{"name":"sourceChainId","type":"uint64","internalType":"uint64"},{"name":"caller","type":"address","internalType":"address"},{"name":"querySchema","type":"bytes32","internalType":"bytes32"},{"name":"queryId","type":"uint256","internalType":"uint256"},{"name":"axiomResults","type":"bytes32[]","internalType":"bytes32[]"},{"name":"extraData","type":"bytes","internalType":"bytes"}],"outputs":[],"stateMutability":"nonpayable"},{"type":"function","name":"axiomV2QueryAddress","inputs":[],"outputs":[{"name":"","type":"address","internalType":"address"}],"stateMutability":"view"},{"type":"function","name":"callbackSourceChainId","inputs":[],"outputs":[{"name":"","type":"uint64","internalType":"uint64"}],"stateMutability":"view"},{"type":"function","name":"hasClaimed","inputs":[{"name":"","type":"address","internalType":"address"}],"outputs":[{"name":"","type":"bool","internalType":"bool"}],"stateMutability":"view"},{"type":"function","name":"owner","inputs":[],"outputs":[{"name":"","type":"address","internalType":"address"}],"stateMutability":"view"},{"type":"function","name":"querySubmitted","inputs":[{"name":"","type":"address","internalType":"address"}],"outputs":[{"name":"","type":"bool","internalType":"bool"}],"stateMutability":"view"},{"type":"function","name":"renounceOwnership","inputs":[],"outputs":[],"stateMutability":"nonpayable"},{"type":"function","name":"token","inputs":[],"outputs":[{"name":"","type":"address","internalType":"contract IERC20"}],"stateMutability":"view"},{"type":"function","name":"transferOwnership","inputs":[{"name":"newOwner","type":"address","internalType":"address"}],"outputs":[],"stateMutability":"nonpayable"},{"type":"function","name":"updateCallbackQuerySchema","inputs":[{"name":"_axiomCallbackQuerySchema","type":"bytes32","internalType":"bytes32"}],"outputs":[],"stateMutability":"nonpayable"},{"type":"function","name":"updateRefundToken","inputs":[{"name":"_token","type":"address","internalType":"address"}],"outputs":[],"stateMutability":"nonpayable"},{"type":"event","name":"AxiomCallbackQuerySchemaUpdated","inputs":[{"name":"axiomCallbackQuerySchema","type":"bytes32","indexed":false,"internalType":"bytes32"}],"anonymous":false},{"type":"event","name":"AxiomV2Call","inputs":[{"name":"sourceChainId","type":"uint64","indexed":true,"internalType":"uint64"},{"name":"caller","type":"address","indexed":false,"internalType":"address"},{"name":"querySchema","type":"bytes32","indexed":true,"internalType":"bytes32"},{"name":"queryId","type":"uint256","indexed":true,"internalType":"uint256"}],"anonymous":false},{"type":"event","name":"AxiomV2OffchainCall","inputs":[{"name":"sourceChainId","type":"uint64","indexed":true,"internalType":"uint64"},{"name":"caller","type":"address","indexed":false,"internalType":"address"},{"name":"querySchema","type":"bytes32","indexed":true,"internalType":"bytes32"},{"name":"queryId","type":"uint256","indexed":true,"internalType":"uint256"}],"anonymous":false},{"type":"event","name":"ClaimRefund","inputs":[{"name":"user","type":"address","indexed":true,"internalType":"address"},{"name":"queryId","type":"uint256","indexed":true,"internalType":"uint256"},{"name":"transferValue","type":"uint256","indexed":false,"internalType":"uint256"},{"name":"axiomResults","type":"bytes32[]","indexed":false,"internalType":"bytes32[]"}],"anonymous":false},{"type":"event","name":"ClaimRefundError","inputs":[{"name":"user","type":"address","indexed":true,"internalType":"address"},{"name":"error","type":"string","indexed":false,"internalType":"string"}],"anonymous":false},{"type":"event","name":"OwnershipTransferred","inputs":[{"name":"previousOwner","type":"address","indexed":true,"internalType":"address"},{"name":"newOwner","type":"address","indexed":true,"internalType":"address"}],"anonymous":false},{"type":"event","name":"RefundTokenAddressUpdated","inputs":[{"name":"token","type":"address","indexed":false,"internalType":"address"}],"anonymous":false},{"type":"error","name":"AxiomV2QueryAddressIsZero","inputs":[]},{"type":"error","name":"CallerMustBeAxiomV2Query","inputs":[]}],"bytecode":{"object":"0x60a060405234801561001057600080fd5b50604051610e28380380610e2883398101604081905261002f916100f0565b826001600160a01b0381166100575760405163d86f565560e01b815260040160405180910390fd5b6001600160a01b031660805261006c336100a0565b600080546001600160401b03909316600160a01b02600160a01b600160e01b0319909316929092179091556001555061014b565b600080546001600160a01b038381166001600160a01b0319831681178455604051919092169283917f8be0079c531659141344cd1fd0a4f28419497f9722a3daafe3b4186f6b6457e09190a35050565b60008060006060848603121561010557600080fd5b83516001600160a01b038116811461011c57600080fd5b60208501519093506001600160401b038116811461013957600080fd5b80925050604084015190509250925092565b608051610cb46101746000396000818161018d0152818161033701526103f60152610cb46000f3fe608060405234801561001057600080fd5b50600436106101005760003560e01c8063a3bea24711610097578063dc5cd53c11610066578063dc5cd53c14610288578063f2fde38b1461029b578063fc0c546a146102ae578063fedf83bb146102c157600080fd5b8063a3bea24714610226578063ab72fc0914610241578063bfd1783114610264578063cd1cd7251461027f57600080fd5b8063715018a6116100d3578063715018a6146101c757806373b2e80e146101cf5780638193399c146102025780638da5cb5b1461021557600080fd5b8063034606e0146101055780630a50ec5c1461011a57806315344188146101535780632a75d3be14610188575b600080fd5b610118610113366004610a86565b6102d4565b005b60005461013590600160a01b900467ffffffffffffffff1681565b60405167ffffffffffffffff90911681526020015b60405180910390f35b61017a7fddf252ad1be2c89b69c2b068fc378daa952ba7f163c4a11628f55a4df523b3ef81565b60405190815260200161014a565b6101af7f000000000000000000000000000000000000000000000000000000000000000081565b6040516001600160a01b03909116815260200161014a565b610118610318565b6101f26101dd366004610abb565b60036020526000908152604090205460ff1681565b604051901515815260200161014a565b610118610210366004610b26565b61032c565b6000546001600160a01b03166101af565b6101af731f9840a85d5af5bf1d1762f925bdaddc4201f98481565b6101f261024f366004610abb565b60026020526000908152604090205460ff1681565b6101af73e534b1d79cb4c8e11beb93f00184a12bd85a63fd81565b61017a60015481565b610118610296366004610b26565b6103eb565b6101186102a9366004610abb565b610490565b6004546101af906001600160a01b031681565b6101186102cf366004610abb565b61050e565b6102dc610564565b60018190556040518181527f215a17e0015e11cebc3087027513f0b70572c3b3341a76ef38fbcbbb8193c6ae906020015b60405180910390a150565b610320610564565b61032a60006105be565b565b336001600160a01b037f00000000000000000000000000000000000000000000000000000000000000001614610375576040516312e71c9f60e11b815260040160405180910390fd5b6040516001600160a01b03881681528590879067ffffffffffffffff8b16907fd6d9923f6afa6ae6afc97c99da22b8ccadc9beafe897857b2434da0a402da98c9060200160405180910390a46103d1600189898989878761060e565b6103e188888888888888886106e3565b5050505050505050565b336001600160a01b037f00000000000000000000000000000000000000000000000000000000000000001614610434576040516312e71c9f60e11b815260040160405180910390fd5b6040516001600160a01b03881681528590879067ffffffffffffffff8b16907fc6d3309bf887e48755c9a455e332b73641b6bf2fd018e3b608bf21676c4c0af59060200160405180910390a46103d1600089898989878761060e565b610498610564565b6001600160a01b0381166105025760405162461bcd60e51b815260206004820152602660248201527f4f776e61626c653a206e6577206f776e657220697320746865207a65726f206160448201526564647265737360d01b60648201526084015b60405180910390fd5b61050b816105be565b50565b610516610564565b600480546001600160a01b0319166001600160a01b0383169081179091556040519081527feaf416afecd22a0564af9ccd6d2b8b8c8cc18c4de2f7a4c512dc805ee87ad0ec9060200161030d565b6000546001600160a01b0316331461032a5760405162461bcd60e51b815260206004820181905260248201527f4f776e61626c653a2063616c6c6572206973206e6f7420746865206f776e657260448201526064016104f9565b600080546001600160a01b038381166001600160a01b0319831681178455604051919092169283917f8be0079c531659141344cd1fd0a4f28419497f9722a3daafe3b4186f6b6457e09190a35050565b60005467ffffffffffffffff878116600160a01b909204161461067f5760405162461bcd60e51b815260206004820152602360248201527f4173736574526566756e643a20736f75726365436861696e4964206d69736d616044820152620e8c6d60eb1b60648201526084016104f9565b60015484146106da5760405162461bcd60e51b815260206004820152602160248201527f4173736574526566756e643a207175657279536368656d61206d69736d6174636044820152600d60fb1b60648201526084016104f9565b50505050505050565b6001600160a01b03871660009081526003602052604090205460ff16156107675760405162461bcd60e51b815260206004820152603260248201527f417373657420526566756e643a20557365722068617320616c726561647920636044820152711b185a5b5959081d1a1a5cc81c99599d5b9960721b60648201526084016104f9565b60008484600081811061077c5761077c610c05565b9050602002013560001c905060008585600181811061079d5761079d610c05565b9050602002013560001c90506000868660028181106107be576107be610c05565b9050602002013560001c90506000878760038181106107df576107df610c05565b9050602002013560001c90508a6001600160a01b0316846001600160a01b0316146108615760405162461bcd60e51b815260206004820152602c60248201527f417373657420526566756e643a20496e76616c6964207573657220616464726560448201526b1cdcc8199bdc88195d995b9d60a21b60648201526084016104f9565b6001600160a01b03831673e534b1d79cb4c8e11beb93f00184a12bd85a63fd146108e65760405162461bcd60e51b815260206004820152603060248201527f417373657420526566756e643a20496e76616c6964207265636569766572206160448201526f19191c995cdcc8199bdc88195d995b9d60821b60648201526084016104f9565b6001600160a01b038116731f9840a85d5af5bf1d1762f925bdaddc4201f984146109935760405162461bcd60e51b815260206004820152605260248201527f417373657420526566756e643a2041646472657373207468617420656d69747460448201527f6564207472616e73666572206576656e74206973206e6f74207468652055534460648201527154205472616e73666572206164647265737360701b608482015260a4016104f9565b6001600160a01b03808c1660008181526003602052604090819020805460ff1916600117905560048054915163a9059cbb60e01b81529081019290925268056bc75e2d631000006024830181905292169063a9059cbb906044016020604051808303816000875af1158015610a0c573d6000803e3d6000fd5b505050506040513d601f19601f82011682018060405250810190610a309190610c1b565b50898c6001600160a01b03167fab6b62b64f3ea2d217d0908b434107c9e2a03a726dba2f3460c2b46d4dfaa041838c8c604051610a6f93929190610c3d565b60405180910390a350505050505050505050505050565b600060208284031215610a9857600080fd5b5035919050565b80356001600160a01b0381168114610ab657600080fd5b919050565b600060208284031215610acd57600080fd5b610ad682610a9f565b9392505050565b60008083601f840112610aef57600080fd5b50813567ffffffffffffffff811115610b0757600080fd5b602083019150836020828501011115610b1f57600080fd5b9250929050565b60008060008060008060008060c0898b031215610b4257600080fd5b883567ffffffffffffffff8082168214610b5b57600080fd5b819950610b6a60208c01610a9f565b985060408b0135975060608b0135965060808b0135915080821115610b8e57600080fd5b818b0191508b601f830112610ba257600080fd5b813581811115610bb157600080fd5b8c60208260051b8501011115610bc657600080fd5b6020830196508095505060a08b0135915080821115610be457600080fd5b50610bf18b828c01610add565b999c989b5096995094979396929594505050565b634e487b7160e01b600052603260045260246000fd5b600060208284031215610c2d57600080fd5b81518015158114610ad657600080fd5b838152604060208201819052810182905260006001600160fb1b03831115610c6457600080fd5b8260051b808560608501379190910160600194935050505056fea2646970667358221220927b7042bbefda7b10ebe5f583fb8445ad74a9c50b8f5a83a63deba0408f284764736f6c63430008130033","linkReferences":{}},"methodIdentifiers":{"RECEIVER_ADDRESS()":"bfd17831","TRANSFER_SCHEMA()":"15344188","UNI_TRANSFER_ADDRESS()":"a3bea247","axiomCallbackQuerySchema()":"cd1cd725","axiomV2Callback(uint64,address,bytes32,uint256,bytes32[],bytes)":"dc5cd53c","axiomV2OffchainCallback(uint64,address,bytes32,uint256,bytes32[],bytes)":"8193399c","axiomV2QueryAddress()":"2a75d3be","callbackSourceChainId()":"0a50ec5c","hasClaimed(address)":"73b2e80e","owner()":"8da5cb5b","querySubmitted(address)":"ab72fc09","renounceOwnership()":"715018a6","token()":"fc0c546a","transferOwnership(address)":"f2fde38b","updateCallbackQuerySchema(bytes32)":"034606e0","updateRefundToken(address)":"fedf83bb"},"id":24}