{"abi":[{"type":"constructor","inputs":[{"name":"_axiomV2QueryAddress","type":"address","internalType":"address"},{"name":"_callbackSourceChainId","type":"uint64","internalType":"uint64"},{"name":"_axiomCallbackQuerySchema","type":"bytes32","internalType":"bytes32"}],"stateMutability":"nonpayable"},{"type":"function","name":"SWAP_EVENT_SCHEMA","inputs":[],"outputs":[{"name":"","type":"bytes32","internalType":"bytes32"}],"stateMutability":"view"},{"type":"function","name":"UNI_UNIV_ROUTER_ADDR","inputs":[],"outputs":[{"name":"","type":"address","internalType":"address"}],"stateMutability":"view"},{"type":"function","name":"axiomCallbackQuerySchema","inputs":[],"outputs":[{"name":"","type":"bytes32","internalType":"bytes32"}],"stateMutability":"view"},{"type":"function","name":"axiomV2Callback","inputs":[{"name":"sourceChainId","type":"uint64","internalType":"uint64"},{"name":"caller","type":"address","internalType":"address"},{"name":"querySchema","type":"bytes32","internalType":"bytes32"},{"name":"queryId","type":"uint256","internalType":"uint256"},{"name":"axiomResults","type":"bytes32[]","internalType":"bytes32[]"},{"name":"extraData","type":"bytes","internalType":"bytes"}],"outputs":[],"stateMutability":"nonpayable"},{"type":"function","name":"axiomV2OffchainCallback","inputs":[{"name":"sourceChainId","type":"uint64","internalType":"uint64"},{"name":"caller","type":"address","internalType":"address"},{"name":"querySchema","type":"bytes32","internalType":"bytes32"},{"name":"queryId","type":"uint256","internalType":"uint256"},{"name":"axiomResults","type":"bytes32[]","internalType":"bytes32[]"},{"name":"extraData","type":"bytes","internalType":"bytes"}],"outputs":[],"stateMutability":"nonpayable"},{"type":"function","name":"axiomV2QueryAddress","inputs":[],"outputs":[{"name":"","type":"address","internalType":"address"}],"stateMutability":"view"},{"type":"function","name":"callbackSourceChainId","inputs":[],"outputs":[{"name":"","type":"uint64","internalType":"uint64"}],"stateMutability":"view"},{"type":"function","name":"hasClaimed","inputs":[{"name":"","type":"address","internalType":"address"}],"outputs":[{"name":"","type":"bool","internalType":"bool"}],"stateMutability":"view"},{"type":"function","name":"owner","inputs":[],"outputs":[{"name":"","type":"address","internalType":"address"}],"stateMutability":"view"},{"type":"function","name":"querySubmitted","inputs":[{"name":"","type":"address","internalType":"address"}],"outputs":[{"name":"","type":"bool","internalType":"bool"}],"stateMutability":"view"},{"type":"function","name":"renounceOwnership","inputs":[],"outputs":[],"stateMutability":"nonpayable"},{"type":"function","name":"token","inputs":[],"outputs":[{"name":"","type":"address","internalType":"contract IERC20"}],"stateMutability":"view"},{"type":"function","name":"transferOwnership","inputs":[{"name":"newOwner","type":"address","internalType":"address"}],"outputs":[],"stateMutability":"nonpayable"},{"type":"function","name":"updateAirdropToken","inputs":[{"name":"_token","type":"address","internalType":"address"}],"outputs":[],"stateMutability":"nonpayable"},{"type":"function","name":"updateCallbackQuerySchema","inputs":[{"name":"_axiomCallbackQuerySchema","type":"bytes32","internalType":"bytes32"}],"outputs":[],"stateMutability":"nonpayable"},{"type":"event","name":"AirdropTokenAddressUpdated","inputs":[{"name":"token","type":"address","indexed":false,"internalType":"address"}],"anonymous":false},{"type":"event","name":"AxiomCallbackQuerySchemaUpdated","inputs":[{"name":"axiomCallbackQuerySchema","type":"bytes32","indexed":false,"internalType":"bytes32"}],"anonymous":false},{"type":"event","name":"AxiomV2Call","inputs":[{"name":"sourceChainId","type":"uint64","indexed":true,"internalType":"uint64"},{"name":"caller","type":"address","indexed":false,"internalType":"address"},{"name":"querySchema","type":"bytes32","indexed":true,"internalType":"bytes32"},{"name":"queryId","type":"uint256","indexed":true,"internalType":"uint256"}],"anonymous":false},{"type":"event","name":"AxiomV2OffchainCall","inputs":[{"name":"sourceChainId","type":"uint64","indexed":true,"internalType":"uint64"},{"name":"caller","type":"address","indexed":false,"internalType":"address"},{"name":"querySchema","type":"bytes32","indexed":true,"internalType":"bytes32"},{"name":"queryId","type":"uint256","indexed":true,"internalType":"uint256"}],"anonymous":false},{"type":"event","name":"ClaimAirdrop","inputs":[{"name":"user","type":"address","indexed":true,"internalType":"address"},{"name":"queryId","type":"uint256","indexed":true,"internalType":"uint256"},{"name":"numTokens","type":"uint256","indexed":false,"internalType":"uint256"},{"name":"axiomResults","type":"bytes32[]","indexed":false,"internalType":"bytes32[]"}],"anonymous":false},{"type":"event","name":"ClaimAirdropError","inputs":[{"name":"user","type":"address","indexed":true,"internalType":"address"},{"name":"error","type":"string","indexed":false,"internalType":"string"}],"anonymous":false},{"type":"event","name":"OwnershipTransferred","inputs":[{"name":"previousOwner","type":"address","indexed":true,"internalType":"address"},{"name":"newOwner","type":"address","indexed":true,"internalType":"address"}],"anonymous":false},{"type":"error","name":"AxiomV2QueryAddressIsZero","inputs":[]},{"type":"error","name":"CallerMustBeAxiomV2Query","inputs":[]}],"bytecode":{"object":"0x60a060405234801561001057600080fd5b50604051610ebc380380610ebc83398101604081905261002f916100f0565b826001600160a01b0381166100575760405163d86f565560e01b815260040160405180910390fd5b6001600160a01b031660805261006c336100a0565b600080546001600160401b03909316600160a01b02600160a01b600160e01b0319909316929092179091556001555061014b565b600080546001600160a01b038381166001600160a01b0319831681178455604051919092169283917f8be0079c531659141344cd1fd0a4f28419497f9722a3daafe3b4186f6b6457e09190a35050565b60008060006060848603121561010557600080fd5b83516001600160a01b038116811461011c57600080fd5b60208501519093506001600160401b038116811461013957600080fd5b80925050604084015190509250925092565b608051610d486101746000396000818161014d0152818161031101526104260152610d486000f3fe608060405234801561001057600080fd5b50600436106100f55760003560e01c80638da5cb5b11610097578063dc5cd53c11610066578063dc5cd53c1461024e578063f2fde38b14610261578063f790c7eb14610274578063fc0c546a1461029b57600080fd5b80638da5cb5b146101f0578063a34c1eb414610201578063ab72fc0914610214578063cd1cd7251461023757600080fd5b8063715018a6116100d3578063715018a61461018757806373b2e80e1461018f5780638193399c146101c2578063863af3cf146101d557600080fd5b8063034606e0146100fa5780630a50ec5c1461010f5780632a75d3be14610148575b600080fd5b61010d610108366004610b1a565b6102ae565b005b60005461012a90600160a01b900467ffffffffffffffff1681565b60405167ffffffffffffffff90911681526020015b60405180910390f35b61016f7f000000000000000000000000000000000000000000000000000000000000000081565b6040516001600160a01b03909116815260200161013f565b61010d6102f2565b6101b261019d366004610b4f565b60036020526000908152604090205460ff1681565b604051901515815260200161013f565b61010d6101d0366004610bba565b610306565b61016f733fc91a3afd70395cd496c647d5a6cc9d4b2b7fad81565b6000546001600160a01b031661016f565b61010d61020f366004610b4f565b6103c5565b6101b2610222366004610b4f565b60026020526000908152604090205460ff1681565b61024060015481565b60405190815260200161013f565b61010d61025c366004610bba565b61041b565b61010d61026f366004610b4f565b6104c0565b6102407fc42079f94a6350d7e6235f29174924f928cc2ac818eb64fed8004e115fbcca6781565b60045461016f906001600160a01b031681565b6102b661053e565b60018190556040518181527f215a17e0015e11cebc3087027513f0b70572c3b3341a76ef38fbcbbb8193c6ae906020015b60405180910390a150565b6102fa61053e565b6103046000610598565b565b336001600160a01b037f0000000000000000000000000000000000000000000000000000000000000000161461034f576040516312e71c9f60e11b815260040160405180910390fd5b6040516001600160a01b03881681528590879067ffffffffffffffff8b16907fd6d9923f6afa6ae6afc97c99da22b8ccadc9beafe897857b2434da0a402da98c9060200160405180910390a46103ab60018989898987876105e8565b6103bb88888888888888886106c9565b5050505050505050565b6103cd61053e565b600480546001600160a01b0319166001600160a01b0383169081179091556040519081527f3d74e308a5601bae6228e9545413c210aad9d550ccd35b1f55805a9bd2cc6dfb906020016102e7565b336001600160a01b037f00000000000000000000000000000000000000000000000000000000000000001614610464576040516312e71c9f60e11b815260040160405180910390fd5b6040516001600160a01b03881681528590879067ffffffffffffffff8b16907fc6d3309bf887e48755c9a455e332b73641b6bf2fd018e3b608bf21676c4c0af59060200160405180910390a46103ab60008989898987876105e8565b6104c861053e565b6001600160a01b0381166105325760405162461bcd60e51b815260206004820152602660248201527f4f776e61626c653a206e6577206f776e657220697320746865207a65726f206160448201526564647265737360d01b60648201526084015b60405180910390fd5b61053b81610598565b50565b6000546001600160a01b031633146103045760405162461bcd60e51b815260206004820181905260248201527f4f776e61626c653a2063616c6c6572206973206e6f7420746865206f776e65726044820152606401610529565b600080546001600160a01b038381166001600160a01b0319831681178455604051919092169283917f8be0079c531659141344cd1fd0a4f28419497f9722a3daafe3b4186f6b6457e09190a35050565b60005467ffffffffffffffff878116600160a01b909204161461065f5760405162461bcd60e51b815260206004820152602960248201527f4175746f6e6f6d6f757341697264726f703a20736f75726365436861696e4964604482015268040dad2e6dac2e8c6d60bb1b6064820152608401610529565b60015484146106c05760405162461bcd60e51b815260206004820152602760248201527f4175746f6e6f6d6f757341697264726f703a207175657279536368656d61206d6044820152660d2e6dac2e8c6d60cb1b6064820152608401610529565b50505050505050565b6001600160a01b03871660009081526003602052604090205460ff16156107585760405162461bcd60e51b815260206004820152603960248201527f4175746f6e6f6d6f75732041697264726f703a20557365722068617320616c7260448201527f6561647920636c61696d656420746869732061697264726f70000000000000006064820152608401610529565b60008484600081811061076d5761076d610c99565b90506020020135905060008585600181811061078b5761078b610c99565b9050602002013560001c90506000868660028181106107ac576107ac610c99565b9050602002013560001c90506000878760038181106107cd576107cd610c99565b60200291909101359150507fc42079f94a6350d7e6235f29174924f928cc2ac818eb64fed8004e115fbcca6784146108585760405162461bcd60e51b815260206004820152602860248201527f4175746f6e6f6d6f75732041697264726f703a20496e76616c6964206576656e6044820152677420736368656d6160c01b6064820152608401610529565b8a6001600160a01b0316836001600160a01b0316146108d45760405162461bcd60e51b815260206004820152603260248201527f4175746f6e6f6d6f75732041697264726f703a20496e76616c69642075736572604482015271081859191c995cdcc8199bdc88195d995b9d60721b6064820152608401610529565b628954408263ffffffff16101561096f5760405162461bcd60e51b815260206004820152605360248201527f4175746f6e6f6d6f75732041697264726f703a20426c6f636b206e756d62657260448201527f20666f72207472616e73616374696f6e2072656365697074206d757374206265606482015272101c9818181818181037b91033b932b0ba32b960691b608482015260a401610529565b6001600160a01b038116733fc91a3afd70395cd496c647d5a6cc9d4b2b7fad14610a275760405162461bcd60e51b815260206004820152605860248201527f4175746f6e6f6d6f75732041697264726f703a205472616e73616374696f6e2060448201527f60746f602061646472657373206973206e6f742074686520556e69737761702060648201527f556e6976657273616c20526f7574657220616464726573730000000000000000608482015260a401610529565b6001600160a01b03808c1660008181526003602052604090819020805460ff1916600117905560048054915163a9059cbb60e01b81529081019290925268056bc75e2d631000006024830181905292169063a9059cbb906044016020604051808303816000875af1158015610aa0573d6000803e3d6000fd5b505050506040513d601f19601f82011682018060405250810190610ac49190610caf565b50898c6001600160a01b03167ff255ca8b36e5c725bc670f71948b01cfa0c198f72828712c7246825ac0e928cf838c8c604051610b0393929190610cd1565b60405180910390a350505050505050505050505050565b600060208284031215610b2c57600080fd5b5035919050565b80356001600160a01b0381168114610b4a57600080fd5b919050565b600060208284031215610b6157600080fd5b610b6a82610b33565b9392505050565b60008083601f840112610b8357600080fd5b50813567ffffffffffffffff811115610b9b57600080fd5b602083019150836020828501011115610bb357600080fd5b9250929050565b60008060008060008060008060c0898b031215610bd657600080fd5b883567ffffffffffffffff8082168214610bef57600080fd5b819950610bfe60208c01610b33565b985060408b0135975060608b0135965060808b0135915080821115610c2257600080fd5b818b0191508b601f830112610c3657600080fd5b813581811115610c4557600080fd5b8c60208260051b8501011115610c5a57600080fd5b6020830196508095505060a08b0135915080821115610c7857600080fd5b50610c858b828c01610b71565b999c989b5096995094979396929594505050565b634e487b7160e01b600052603260045260246000fd5b600060208284031215610cc157600080fd5b81518015158114610b6a57600080fd5b838152604060208201819052810182905260006001600160fb1b03831115610cf857600080fd5b8260051b808560608501379190910160600194935050505056fea264697066735822122094b922917168364bf9a04b6223fac564a94ef0ec0301954ff4abfda84877ea2764736f6c63430008130033","linkReferences":{}},"methodIdentifiers":{"SWAP_EVENT_SCHEMA()":"f790c7eb","UNI_UNIV_ROUTER_ADDR()":"863af3cf","axiomCallbackQuerySchema()":"cd1cd725","axiomV2Callback(uint64,address,bytes32,uint256,bytes32[],bytes)":"dc5cd53c","axiomV2OffchainCallback(uint64,address,bytes32,uint256,bytes32[],bytes)":"8193399c","axiomV2QueryAddress()":"2a75d3be","callbackSourceChainId()":"0a50ec5c","hasClaimed(address)":"73b2e80e","owner()":"8da5cb5b","querySubmitted(address)":"ab72fc09","renounceOwnership()":"715018a6","token()":"fc0c546a","transferOwnership(address)":"f2fde38b","updateAirdropToken(address)":"a34c1eb4","updateCallbackQuerySchema(bytes32)":"034606e0"},"id":42}