{"abi":[{"type":"constructor","inputs":[{"name":"_axiomV2QueryAddress","type":"address","internalType":"address"},{"name":"_callbackSourceChainId","type":"uint64","internalType":"uint64"},{"name":"_axiomCallbackQuerySchema","type":"bytes32","internalType":"bytes32"}],"stateMutability":"nonpayable"},{"type":"function","name":"MIN_BLOCK_NUMBER","inputs":[],"outputs":[{"name":"","type":"uint32","internalType":"uint32"}],"stateMutability":"view"},{"type":"function","name":"SWAP_EVENT_SCHEMA","inputs":[],"outputs":[{"name":"","type":"bytes32","internalType":"bytes32"}],"stateMutability":"view"},{"type":"function","name":"UNIV3_POOL_UNI_WETH","inputs":[],"outputs":[{"name":"","type":"address","internalType":"address"}],"stateMutability":"view"},{"type":"function","name":"axiomCallbackQuerySchema","inputs":[],"outputs":[{"name":"","type":"bytes32","internalType":"bytes32"}],"stateMutability":"view"},{"type":"function","name":"axiomV2Callback","inputs":[{"name":"sourceChainId","type":"uint64","internalType":"uint64"},{"name":"caller","type":"address","internalType":"address"},{"name":"querySchema","type":"bytes32","internalType":"bytes32"},{"name":"queryId","type":"uint256","internalType":"uint256"},{"name":"axiomResults","type":"bytes32[]","internalType":"bytes32[]"},{"name":"extraData","type":"bytes","internalType":"bytes"}],"outputs":[],"stateMutability":"nonpayable"},{"type":"function","name":"axiomV2OffchainCallback","inputs":[{"name":"sourceChainId","type":"uint64","internalType":"uint64"},{"name":"caller","type":"address","internalType":"address"},{"name":"querySchema","type":"bytes32","internalType":"bytes32"},{"name":"queryId","type":"uint256","internalType":"uint256"},{"name":"axiomResults","type":"bytes32[]","internalType":"bytes32[]"},{"name":"extraData","type":"bytes","internalType":"bytes"}],"outputs":[],"stateMutability":"nonpayable"},{"type":"function","name":"axiomV2QueryAddress","inputs":[],"outputs":[{"name":"","type":"address","internalType":"address"}],"stateMutability":"view"},{"type":"function","name":"callbackSourceChainId","inputs":[],"outputs":[{"name":"","type":"uint64","internalType":"uint64"}],"stateMutability":"view"},{"type":"function","name":"hasClaimed","inputs":[{"name":"","type":"address","internalType":"address"}],"outputs":[{"name":"","type":"bool","internalType":"bool"}],"stateMutability":"view"},{"type":"function","name":"owner","inputs":[],"outputs":[{"name":"","type":"address","internalType":"address"}],"stateMutability":"view"},{"type":"function","name":"querySubmitted","inputs":[{"name":"","type":"address","internalType":"address"}],"outputs":[{"name":"","type":"bool","internalType":"bool"}],"stateMutability":"view"},{"type":"function","name":"renounceOwnership","inputs":[],"outputs":[],"stateMutability":"nonpayable"},{"type":"function","name":"token","inputs":[],"outputs":[{"name":"","type":"address","internalType":"contract IERC20"}],"stateMutability":"view"},{"type":"function","name":"transferOwnership","inputs":[{"name":"newOwner","type":"address","internalType":"address"}],"outputs":[],"stateMutability":"nonpayable"},{"type":"function","name":"updateAirdropToken","inputs":[{"name":"_token","type":"address","internalType":"address"}],"outputs":[],"stateMutability":"nonpayable"},{"type":"function","name":"updateCallbackQuerySchema","inputs":[{"name":"_axiomCallbackQuerySchema","type":"bytes32","internalType":"bytes32"}],"outputs":[],"stateMutability":"nonpayable"},{"type":"event","name":"AirdropTokenAddressUpdated","inputs":[{"name":"token","type":"address","indexed":false,"internalType":"address"}],"anonymous":false},{"type":"event","name":"AxiomCallbackQuerySchemaUpdated","inputs":[{"name":"axiomCallbackQuerySchema","type":"bytes32","indexed":false,"internalType":"bytes32"}],"anonymous":false},{"type":"event","name":"AxiomV2Call","inputs":[{"name":"sourceChainId","type":"uint64","indexed":true,"internalType":"uint64"},{"name":"caller","type":"address","indexed":false,"internalType":"address"},{"name":"querySchema","type":"bytes32","indexed":true,"internalType":"bytes32"},{"name":"queryId","type":"uint256","indexed":true,"internalType":"uint256"}],"anonymous":false},{"type":"event","name":"AxiomV2OffchainCall","inputs":[{"name":"sourceChainId","type":"uint64","indexed":true,"internalType":"uint64"},{"name":"caller","type":"address","indexed":false,"internalType":"address"},{"name":"querySchema","type":"bytes32","indexed":true,"internalType":"bytes32"},{"name":"queryId","type":"uint256","indexed":true,"internalType":"uint256"}],"anonymous":false},{"type":"event","name":"ClaimAirdrop","inputs":[{"name":"user","type":"address","indexed":true,"internalType":"address"},{"name":"queryId","type":"uint256","indexed":true,"internalType":"uint256"},{"name":"numTokens","type":"uint256","indexed":false,"internalType":"uint256"},{"name":"axiomResults","type":"bytes32[]","indexed":false,"internalType":"bytes32[]"}],"anonymous":false},{"type":"event","name":"ClaimAirdropError","inputs":[{"name":"user","type":"address","indexed":true,"internalType":"address"},{"name":"error","type":"string","indexed":false,"internalType":"string"}],"anonymous":false},{"type":"event","name":"OwnershipTransferred","inputs":[{"name":"previousOwner","type":"address","indexed":true,"internalType":"address"},{"name":"newOwner","type":"address","indexed":true,"internalType":"address"}],"anonymous":false},{"type":"error","name":"AxiomV2QueryAddressIsZero","inputs":[]},{"type":"error","name":"CallerMustBeAxiomV2Query","inputs":[]}],"bytecode":{"object":"0x60a060405234801561001057600080fd5b50604051610ee6380380610ee683398101604081905261002f916100f0565b826001600160a01b0381166100575760405163d86f565560e01b815260040160405180910390fd5b6001600160a01b031660805261006c336100a0565b600080546001600160401b03909316600160a01b02600160a01b600160e01b0319909316929092179091556001555061014b565b600080546001600160a01b038381166001600160a01b0319831681178455604051919092169283917f8be0079c531659141344cd1fd0a4f28419497f9722a3daafe3b4186f6b6457e09190a35050565b60008060006060848603121561010557600080fd5b83516001600160a01b038116811461011c57600080fd5b60208501519093506001600160401b038116811461013957600080fd5b80925050604084015190509250925092565b608051610d72610174600039600081816101580152818161033b01526104500152610d726000f3fe608060405234801561001057600080fd5b50600436106101005760003560e01c8063a34c1eb411610097578063f2d7fd8411610066578063f2d7fd841461026c578063f2fde38b1461028b578063f790c7eb1461029e578063fc0c546a146102c557600080fd5b8063a34c1eb41461020c578063ab72fc091461021f578063cd1cd72514610242578063dc5cd53c1461025957600080fd5b8063715018a6116100d3578063715018a6146101ad57806373b2e80e146101b55780638193399c146101e85780638da5cb5b146101fb57600080fd5b8063034606e0146101055780630a50ec5c1461011a5780632a75d3be146101535780632ceef6a514610192575b600080fd5b610118610113366004610b44565b6102d8565b005b60005461013590600160a01b900467ffffffffffffffff1681565b60405167ffffffffffffffff90911681526020015b60405180910390f35b61017a7f000000000000000000000000000000000000000000000000000000000000000081565b6040516001600160a01b03909116815260200161014a565b61017a73224cc4e5b50036108c1d862442365054600c260c81565b61011861031c565b6101d86101c3366004610b79565b60036020526000908152604090205460ff1681565b604051901515815260200161014a565b6101186101f6366004610be4565b610330565b6000546001600160a01b031661017a565b61011861021a366004610b79565b6103ef565b6101d861022d366004610b79565b60026020526000908152604090205460ff1681565b61024b60015481565b60405190815260200161014a565b610118610267366004610be4565b610445565b610276623d090081565b60405163ffffffff909116815260200161014a565b610118610299366004610b79565b6104ea565b61024b7fc42079f94a6350d7e6235f29174924f928cc2ac818eb64fed8004e115fbcca6781565b60045461017a906001600160a01b031681565b6102e0610568565b60018190556040518181527f215a17e0015e11cebc3087027513f0b70572c3b3341a76ef38fbcbbb8193c6ae906020015b60405180910390a150565b610324610568565b61032e60006105c2565b565b336001600160a01b037f00000000000000000000000000000000000000000000000000000000000000001614610379576040516312e71c9f60e11b815260040160405180910390fd5b6040516001600160a01b03881681528590879067ffffffffffffffff8b16907fd6d9923f6afa6ae6afc97c99da22b8ccadc9beafe897857b2434da0a402da98c9060200160405180910390a46103d56001898989898787610612565b6103e588888888888888886106f3565b5050505050505050565b6103f7610568565b600480546001600160a01b0319166001600160a01b0383169081179091556040519081527f3d74e308a5601bae6228e9545413c210aad9d550ccd35b1f55805a9bd2cc6dfb90602001610311565b336001600160a01b037f0000000000000000000000000000000000000000000000000000000000000000161461048e576040516312e71c9f60e11b815260040160405180910390fd5b6040516001600160a01b03881681528590879067ffffffffffffffff8b16907fc6d3309bf887e48755c9a455e332b73641b6bf2fd018e3b608bf21676c4c0af59060200160405180910390a46103d56000898989898787610612565b6104f2610568565b6001600160a01b03811661055c5760405162461bcd60e51b815260206004820152602660248201527f4f776e61626c653a206e6577206f776e657220697320746865207a65726f206160448201526564647265737360d01b60648201526084015b60405180910390fd5b610565816105c2565b50565b6000546001600160a01b0316331461032e5760405162461bcd60e51b815260206004820181905260248201527f4f776e61626c653a2063616c6c6572206973206e6f7420746865206f776e65726044820152606401610553565b600080546001600160a01b038381166001600160a01b0319831681178455604051919092169283917f8be0079c531659141344cd1fd0a4f28419497f9722a3daafe3b4186f6b6457e09190a35050565b60005467ffffffffffffffff878116600160a01b90920416146106895760405162461bcd60e51b815260206004820152602960248201527f4175746f6e6f6d6f757341697264726f703a20736f75726365436861696e4964604482015268040dad2e6dac2e8c6d60bb1b6064820152608401610553565b60015484146106ea5760405162461bcd60e51b815260206004820152602760248201527f4175746f6e6f6d6f757341697264726f703a207175657279536368656d61206d6044820152660d2e6dac2e8c6d60cb1b6064820152608401610553565b50505050505050565b6001600160a01b03871660009081526003602052604090205460ff16156107825760405162461bcd60e51b815260206004820152603960248201527f4175746f6e6f6d6f75732041697264726f703a20557365722068617320616c7260448201527f6561647920636c61696d656420746869732061697264726f70000000000000006064820152608401610553565b60008484600081811061079757610797610cc3565b9050602002013590506000858560018181106107b5576107b5610cc3565b9050602002013560001c90506000868660028181106107d6576107d6610cc3565b9050602002013560001c90506000878760038181106107f7576107f7610cc3565b60200291909101359150507fc42079f94a6350d7e6235f29174924f928cc2ac818eb64fed8004e115fbcca6784146108825760405162461bcd60e51b815260206004820152602860248201527f4175746f6e6f6d6f75732041697264726f703a20496e76616c6964206576656e6044820152677420736368656d6160c01b6064820152608401610553565b8a6001600160a01b0316836001600160a01b0316146108fe5760405162461bcd60e51b815260206004820152603260248201527f4175746f6e6f6d6f75732041697264726f703a20496e76616c69642075736572604482015271081859191c995cdcc8199bdc88195d995b9d60721b6064820152608401610553565b623d090063ffffffff831610156109995760405162461bcd60e51b815260206004820152605360248201527f4175746f6e6f6d6f75732041697264726f703a20426c6f636b206e756d62657260448201527f20666f72207472616e73616374696f6e2072656365697074206d757374206265606482015272101a1818181818181037b91033b932b0ba32b960691b608482015260a401610553565b6001600160a01b03811673224cc4e5b50036108c1d862442365054600c260c14610a515760405162461bcd60e51b815260206004820152605c60248201527f4175746f6e6f6d6f75732041697264726f703a2041646472657373207468617460448201527f20656d697474656420605377617060206576656e74206973206e6f742074686560648201527f20556e69563320554e492d5745544820706f6f6c206164647265737300000000608482015260a401610553565b6001600160a01b03808c1660008181526003602052604090819020805460ff1916600117905560048054915163a9059cbb60e01b81529081019290925268056bc75e2d631000006024830181905292169063a9059cbb906044016020604051808303816000875af1158015610aca573d6000803e3d6000fd5b505050506040513d601f19601f82011682018060405250810190610aee9190610cd9565b50898c6001600160a01b03167ff255ca8b36e5c725bc670f71948b01cfa0c198f72828712c7246825ac0e928cf838c8c604051610b2d93929190610cfb565b60405180910390a350505050505050505050505050565b600060208284031215610b5657600080fd5b5035919050565b80356001600160a01b0381168114610b7457600080fd5b919050565b600060208284031215610b8b57600080fd5b610b9482610b5d565b9392505050565b60008083601f840112610bad57600080fd5b50813567ffffffffffffffff811115610bc557600080fd5b602083019150836020828501011115610bdd57600080fd5b9250929050565b60008060008060008060008060c0898b031215610c0057600080fd5b883567ffffffffffffffff8082168214610c1957600080fd5b819950610c2860208c01610b5d565b985060408b0135975060608b0135965060808b0135915080821115610c4c57600080fd5b818b0191508b601f830112610c6057600080fd5b813581811115610c6f57600080fd5b8c60208260051b8501011115610c8457600080fd5b6020830196508095505060a08b0135915080821115610ca257600080fd5b50610caf8b828c01610b9b565b999c989b5096995094979396929594505050565b634e487b7160e01b600052603260045260246000fd5b600060208284031215610ceb57600080fd5b81518015158114610b9457600080fd5b838152604060208201819052810182905260006001600160fb1b03831115610d2257600080fd5b8260051b808560608501379190910160600194935050505056fea2646970667358221220148a1d57cbad5d98c3ec92fd15cb2e15138fc12b6df88c9629253fb88e33b99764736f6c63430008130033","linkReferences":{}},"methodIdentifiers":{"MIN_BLOCK_NUMBER()":"f2d7fd84","SWAP_EVENT_SCHEMA()":"f790c7eb","UNIV3_POOL_UNI_WETH()":"2ceef6a5","axiomCallbackQuerySchema()":"cd1cd725","axiomV2Callback(uint64,address,bytes32,uint256,bytes32[],bytes)":"dc5cd53c","axiomV2OffchainCallback(uint64,address,bytes32,uint256,bytes32[],bytes)":"8193399c","axiomV2QueryAddress()":"2a75d3be","callbackSourceChainId()":"0a50ec5c","hasClaimed(address)":"73b2e80e","owner()":"8da5cb5b","querySubmitted(address)":"ab72fc09","renounceOwnership()":"715018a6","token()":"fc0c546a","transferOwnership(address)":"f2fde38b","updateAirdropToken(address)":"a34c1eb4","updateCallbackQuerySchema(bytes32)":"034606e0"},"id":44}