{"abi":[{"type":"constructor","inputs":[{"name":"_axiomV2QueryAddress","type":"address","internalType":"address"},{"name":"_callbackSourceChainId","type":"uint64","internalType":"uint64"},{"name":"_axiomCallbackQuerySchema","type":"bytes32","internalType":"bytes32"}],"stateMutability":"nonpayable"},{"type":"function","name":"MIN_BLOCK_NUMBER","inputs":[],"outputs":[{"name":"","type":"uint32","internalType":"uint32"}],"stateMutability":"view"},{"type":"function","name":"SWAP_EVENT_SCHEMA","inputs":[],"outputs":[{"name":"","type":"bytes32","internalType":"bytes32"}],"stateMutability":"view"},{"type":"function","name":"UNIV3_POOL_UNI_WETH0","inputs":[],"outputs":[{"name":"","type":"address","internalType":"address"}],"stateMutability":"view"},{"type":"function","name":"UNIV3_POOL_UNI_WETH1","inputs":[],"outputs":[{"name":"","type":"address","internalType":"address"}],"stateMutability":"view"},{"type":"function","name":"axiomCallbackQuerySchema","inputs":[],"outputs":[{"name":"","type":"bytes32","internalType":"bytes32"}],"stateMutability":"view"},{"type":"function","name":"axiomV2Callback","inputs":[{"name":"sourceChainId","type":"uint64","internalType":"uint64"},{"name":"caller","type":"address","internalType":"address"},{"name":"querySchema","type":"bytes32","internalType":"bytes32"},{"name":"queryId","type":"uint256","internalType":"uint256"},{"name":"axiomResults","type":"bytes32[]","internalType":"bytes32[]"},{"name":"extraData","type":"bytes","internalType":"bytes"}],"outputs":[],"stateMutability":"nonpayable"},{"type":"function","name":"axiomV2OffchainCallback","inputs":[{"name":"sourceChainId","type":"uint64","internalType":"uint64"},{"name":"caller","type":"address","internalType":"address"},{"name":"querySchema","type":"bytes32","internalType":"bytes32"},{"name":"queryId","type":"uint256","internalType":"uint256"},{"name":"axiomResults","type":"bytes32[]","internalType":"bytes32[]"},{"name":"extraData","type":"bytes","internalType":"bytes"}],"outputs":[],"stateMutability":"nonpayable"},{"type":"function","name":"axiomV2QueryAddress","inputs":[],"outputs":[{"name":"","type":"address","internalType":"address"}],"stateMutability":"view"},{"type":"function","name":"callbackSourceChainId","inputs":[],"outputs":[{"name":"","type":"uint64","internalType":"uint64"}],"stateMutability":"view"},{"type":"function","name":"hasClaimed","inputs":[{"name":"","type":"address","internalType":"address"}],"outputs":[{"name":"","type":"bool","internalType":"bool"}],"stateMutability":"view"},{"type":"function","name":"owner","inputs":[],"outputs":[{"name":"","type":"address","internalType":"address"}],"stateMutability":"view"},{"type":"function","name":"querySubmitted","inputs":[{"name":"","type":"address","internalType":"address"}],"outputs":[{"name":"","type":"bool","internalType":"bool"}],"stateMutability":"view"},{"type":"function","name":"renounceOwnership","inputs":[],"outputs":[],"stateMutability":"nonpayable"},{"type":"function","name":"token","inputs":[],"outputs":[{"name":"","type":"address","internalType":"contract IERC20"}],"stateMutability":"view"},{"type":"function","name":"transferOwnership","inputs":[{"name":"newOwner","type":"address","internalType":"address"}],"outputs":[],"stateMutability":"nonpayable"},{"type":"function","name":"updateAirdropToken","inputs":[{"name":"_token","type":"address","internalType":"address"}],"outputs":[],"stateMutability":"nonpayable"},{"type":"function","name":"updateCallbackQuerySchema","inputs":[{"name":"_axiomCallbackQuerySchema","type":"bytes32","internalType":"bytes32"}],"outputs":[],"stateMutability":"nonpayable"},{"type":"event","name":"AirdropTokenAddressUpdated","inputs":[{"name":"token","type":"address","indexed":false,"internalType":"address"}],"anonymous":false},{"type":"event","name":"AxiomCallbackQuerySchemaUpdated","inputs":[{"name":"axiomCallbackQuerySchema","type":"bytes32","indexed":false,"internalType":"bytes32"}],"anonymous":false},{"type":"event","name":"AxiomV2Call","inputs":[{"name":"sourceChainId","type":"uint64","indexed":true,"internalType":"uint64"},{"name":"caller","type":"address","indexed":false,"internalType":"address"},{"name":"querySchema","type":"bytes32","indexed":true,"internalType":"bytes32"},{"name":"queryId","type":"uint256","indexed":true,"internalType":"uint256"}],"anonymous":false},{"type":"event","name":"AxiomV2OffchainCall","inputs":[{"name":"sourceChainId","type":"uint64","indexed":true,"internalType":"uint64"},{"name":"caller","type":"address","indexed":false,"internalType":"address"},{"name":"querySchema","type":"bytes32","indexed":true,"internalType":"bytes32"},{"name":"queryId","type":"uint256","indexed":true,"internalType":"uint256"}],"anonymous":false},{"type":"event","name":"ClaimAirdrop","inputs":[{"name":"user","type":"address","indexed":true,"internalType":"address"},{"name":"queryId","type":"uint256","indexed":true,"internalType":"uint256"},{"name":"numTokens","type":"uint256","indexed":false,"internalType":"uint256"},{"name":"axiomResults","type":"bytes32[]","indexed":false,"internalType":"bytes32[]"}],"anonymous":false},{"type":"event","name":"ClaimAirdropError","inputs":[{"name":"user","type":"address","indexed":true,"internalType":"address"},{"name":"error","type":"string","indexed":false,"internalType":"string"}],"anonymous":false},{"type":"event","name":"OwnershipTransferred","inputs":[{"name":"previousOwner","type":"address","indexed":true,"internalType":"address"},{"name":"newOwner","type":"address","indexed":true,"internalType":"address"}],"anonymous":false},{"type":"error","name":"AxiomV2QueryAddressIsZero","inputs":[]},{"type":"error","name":"CallerMustBeAxiomV2Query","inputs":[]}],"bytecode":{"object":"0x60a060405234801561001057600080fd5b50604051610e95380380610e9583398101604081905261002f916100f0565b826001600160a01b0381166100575760405163d86f565560e01b815260040160405180910390fd5b6001600160a01b031660805261006c336100a0565b600080546001600160401b03909316600160a01b02600160a01b600160e01b0319909316929092179091556001555061014b565b600080546001600160a01b038381166001600160a01b0319831681178455604051919092169283917f8be0079c531659141344cd1fd0a4f28419497f9722a3daafe3b4186f6b6457e09190a35050565b60008060006060848603121561010557600080fd5b83516001600160a01b038116811461011c57600080fd5b60208501519093506001600160401b038116811461013957600080fd5b80925050604084015190509250925092565b608051610d21610174600039600081816101630152818161036101526104760152610d216000f3fe608060405234801561001057600080fd5b506004361061010b5760003560e01c8063a34c1eb4116100a2578063dc5cd53c11610071578063dc5cd53c1461027f578063f2d7fd8414610292578063f2fde38b146102b1578063f790c7eb146102c4578063fc0c546a146102eb57600080fd5b8063a34c1eb414610217578063ab72fc091461022a578063cd1cd7251461024d578063db9cd92f1461026457600080fd5b8063715018a6116100de578063715018a6146101b857806373b2e80e146101c05780638193399c146101f35780638da5cb5b1461020657600080fd5b8063034606e0146101105780630a50ec5c146101255780632a75d3be1461015e5780634369337d1461019d575b600080fd5b61012361011e366004610af3565b6102fe565b005b60005461014090600160a01b900467ffffffffffffffff1681565b60405167ffffffffffffffff90911681526020015b60405180910390f35b6101857f000000000000000000000000000000000000000000000000000000000000000081565b6040516001600160a01b039091168152602001610155565b61018573224cc4e5b50036108c1d862442365054600c260c81565b610123610342565b6101e36101ce366004610b28565b60036020526000908152604090205460ff1681565b6040519015158152602001610155565b610123610201366004610b93565b610356565b6000546001600160a01b0316610185565b610123610225366004610b28565b610415565b6101e3610238366004610b28565b60026020526000908152604090205460ff1681565b61025660015481565b604051908152602001610155565b61018573287b0e934ed0439e2a7b1d5f0fc25ea2c24b64f781565b61012361028d366004610b93565b61046b565b61029c623d090081565b60405163ffffffff9091168152602001610155565b6101236102bf366004610b28565b610510565b6102567fc42079f94a6350d7e6235f29174924f928cc2ac818eb64fed8004e115fbcca6781565b600454610185906001600160a01b031681565b61030661058e565b60018190556040518181527f215a17e0015e11cebc3087027513f0b70572c3b3341a76ef38fbcbbb8193c6ae906020015b60405180910390a150565b61034a61058e565b61035460006105e8565b565b336001600160a01b037f0000000000000000000000000000000000000000000000000000000000000000161461039f576040516312e71c9f60e11b815260040160405180910390fd5b6040516001600160a01b03881681528590879067ffffffffffffffff8b16907fd6d9923f6afa6ae6afc97c99da22b8ccadc9beafe897857b2434da0a402da98c9060200160405180910390a46103fb6001898989898787610638565b61040b8888888888888888610719565b5050505050505050565b61041d61058e565b600480546001600160a01b0319166001600160a01b0383169081179091556040519081527f3d74e308a5601bae6228e9545413c210aad9d550ccd35b1f55805a9bd2cc6dfb90602001610337565b336001600160a01b037f000000000000000000000000000000000000000000000000000000000000000016146104b4576040516312e71c9f60e11b815260040160405180910390fd5b6040516001600160a01b03881681528590879067ffffffffffffffff8b16907fc6d3309bf887e48755c9a455e332b73641b6bf2fd018e3b608bf21676c4c0af59060200160405180910390a46103fb6000898989898787610638565b61051861058e565b6001600160a01b0381166105825760405162461bcd60e51b815260206004820152602660248201527f4f776e61626c653a206e6577206f776e657220697320746865207a65726f206160448201526564647265737360d01b60648201526084015b60405180910390fd5b61058b816105e8565b50565b6000546001600160a01b031633146103545760405162461bcd60e51b815260206004820181905260248201527f4f776e61626c653a2063616c6c6572206973206e6f7420746865206f776e65726044820152606401610579565b600080546001600160a01b038381166001600160a01b0319831681178455604051919092169283917f8be0079c531659141344cd1fd0a4f28419497f9722a3daafe3b4186f6b6457e09190a35050565b60005467ffffffffffffffff878116600160a01b90920416146106af5760405162461bcd60e51b815260206004820152602960248201527f4175746f6e6f6d6f757341697264726f703a20736f75726365436861696e4964604482015268040dad2e6dac2e8c6d60bb1b6064820152608401610579565b60015484146107105760405162461bcd60e51b815260206004820152602760248201527f4175746f6e6f6d6f757341697264726f703a207175657279536368656d61206d6044820152660d2e6dac2e8c6d60cb1b6064820152608401610579565b50505050505050565b6001600160a01b03871660009081526003602052604090205460ff16156107a85760405162461bcd60e51b815260206004820152603960248201527f4175746f6e6f6d6f75732041697264726f703a20557365722068617320616c7260448201527f6561647920636c61696d656420746869732061697264726f70000000000000006064820152608401610579565b6000848460008181106107bd576107bd610c72565b9050602002013560001c90506000858560018181106107de576107de610c72565b9050602002013560001c90506000868660028181106107ff576107ff610c72565b9050602002013560001c9050896001600160a01b0316836001600160a01b0316146108875760405162461bcd60e51b815260206004820152603260248201527f4175746f6e6f6d6f75732041697264726f703a20496e76616c69642075736572604482015271081859191c995cdcc8199bdc88195d995b9d60721b6064820152608401610579565b623d090063ffffffff831610156109225760405162461bcd60e51b815260206004820152605360248201527f4175746f6e6f6d6f75732041697264726f703a20426c6f636b206e756d62657260448201527f20666f72207472616e73616374696f6e2072656365697074206d757374206265606482015272101a1818181818181037b91033b932b0ba32b960691b608482015260a401610579565b6001600160a01b03811673224cc4e5b50036108c1d862442365054600c260c148061096957506001600160a01b03811673287b0e934ed0439e2a7b1d5f0fc25ea2c24b64f7145b610a015760405162461bcd60e51b815260206004820152605c60248201527f4175746f6e6f6d6f75732041697264726f703a2041646472657373207468617460448201527f20656d697474656420605377617060206576656e74206973206e6f742074686560648201527f20556e69563320554e492d5745544820706f6f6c206164647265737300000000608482015260a401610579565b6001600160a01b038a811660008181526003602052604090819020805460ff1916600117905560048054915163a9059cbb60e01b81529081019290925268056bc75e2d631000006024830181905292169063a9059cbb906044016020604051808303816000875af1158015610a7a573d6000803e3d6000fd5b505050506040513d601f19601f82011682018060405250810190610a9e9190610c88565b50888b6001600160a01b03167ff255ca8b36e5c725bc670f71948b01cfa0c198f72828712c7246825ac0e928cf838b8b604051610add93929190610caa565b60405180910390a3505050505050505050505050565b600060208284031215610b0557600080fd5b5035919050565b80356001600160a01b0381168114610b2357600080fd5b919050565b600060208284031215610b3a57600080fd5b610b4382610b0c565b9392505050565b60008083601f840112610b5c57600080fd5b50813567ffffffffffffffff811115610b7457600080fd5b602083019150836020828501011115610b8c57600080fd5b9250929050565b60008060008060008060008060c0898b031215610baf57600080fd5b883567ffffffffffffffff8082168214610bc857600080fd5b819950610bd760208c01610b0c565b985060408b0135975060608b0135965060808b0135915080821115610bfb57600080fd5b818b0191508b601f830112610c0f57600080fd5b813581811115610c1e57600080fd5b8c60208260051b8501011115610c3357600080fd5b6020830196508095505060a08b0135915080821115610c5157600080fd5b50610c5e8b828c01610b4a565b999c989b5096995094979396929594505050565b634e487b7160e01b600052603260045260246000fd5b600060208284031215610c9a57600080fd5b81518015158114610b4357600080fd5b838152604060208201819052810182905260006001600160fb1b03831115610cd157600080fd5b8260051b808560608501379190910160600194935050505056fea26469706673582212201ba91ecf6f576c734dd1440c1be1eb1cf5934c94605dd3eb2ae2dee28d552db764736f6c63430008130033","linkReferences":{}},"methodIdentifiers":{"MIN_BLOCK_NUMBER()":"f2d7fd84","SWAP_EVENT_SCHEMA()":"f790c7eb","UNIV3_POOL_UNI_WETH0()":"4369337d","UNIV3_POOL_UNI_WETH1()":"db9cd92f","axiomCallbackQuerySchema()":"cd1cd725","axiomV2Callback(uint64,address,bytes32,uint256,bytes32[],bytes)":"dc5cd53c","axiomV2OffchainCallback(uint64,address,bytes32,uint256,bytes32[],bytes)":"8193399c","axiomV2QueryAddress()":"2a75d3be","callbackSourceChainId()":"0a50ec5c","hasClaimed(address)":"73b2e80e","owner()":"8da5cb5b","querySubmitted(address)":"ab72fc09","renounceOwnership()":"715018a6","token()":"fc0c546a","transferOwnership(address)":"f2fde38b","updateAirdropToken(address)":"a34c1eb4","updateCallbackQuerySchema(bytes32)":"034606e0"},"id":44}